:020000040000fa
:080000000002040000000000f2
:020000040000fa
:10040000ef8020000e7f22000e0188000000000017
:100410000c0007008085200001002000110007006b
:10042000000020000000e000020032000000020096
:10043000000000007a040200000000000040da0022
:100440000000fe004440a900000020000000e00081
:100450000300320000002000a00188004440a800f2
:100460000000060091018800800078000000eb0089
:1004700015003700e280400032a0b4009101ba00bc
:10048000e280400032a0b4009102ba00e280400055
:1004900032a0b4000002eb00472bde00f507b200eb
:1004a000602ce10004003a000059eb008301e900f0
:1004b000fdff3e00040037006128e100010032002a
:1004c0000082eb00040007001101ba000200e00006
:1004d000e8ff3a00000006003159ba008301e90044
:1004e0000c0032002159ba008301e90008003200f3
:1004f0000400e00003003a00e280400032a0b400b3
:10050000f5ff370011d9ba008301e900faff3a007c
:100510008100e800e180400032a0b4000000060045
:100520000040da000000fe0003f0a200889fbe0039
:100530008a9fbe008c1f7800af000700cf023300f7
:100540006450e1004f0032006420e10052003200ac
:1005500003826c0007003b000905d0000306d000b1
:10056000820f54000c065d000200390002003200c8
:1005700089017800030678008582550004003d005b
:100580000003fd008103fd008502ea008b85420027
:10059000840f720002003b0060001000e080180031
:1005a0006011b8000005eb007a28e1000a0039006c
:1005b00006007800c75ddd00f707b2008780750090
:1005c0002d003700828171000a017800610560000a
:1005d0008180d1000080d3008502e900f9ff3b0053
:1005e000060440008784480002003b0060041400b9
:1005f000e0841c000988a300070032008a81710092
:1006000082817100610164008904d1000884d300f3
:100610008b05e800170037000978a30013003a00a3
:100620000b00e000130034008b05e90008044400cf
:1006300089844c000a4474000978a3000d003a0034
:100640000b00e000070034008b05e90008044400bb
:1006500089844c0001003a000b0020000978a300b7
:10066000f7ff32000001eb000200370082817100c9
:100670000a017800250007000cf0a70001f0a00097
:10068000870237006420e10002003a00838f6c008b
:10069000610033000801be000200be008002370086
:1006a0000001be003f0007000470a70003f0a10096
:1006b00003f8a30013003a006509b10010003200ee
:1006c000090035006928e10002003500010028001a
:1006d0000000050000004000818048008502e9001c
:1006e000fcff3a0000000600f88f420005003500cc
:1006f0008100d1000080d3008502e800fcff3a00b1
:10070000000006008000eb000000050081002000d2
:10071000618055000b003d000b00200061fe2f00a2
:100720000100e1001d00340082817100610164005c
:100730008904d1000884d3000000e800faff3a00e1
:10074000710020006100640003007000020060007e
:100750000900320061044400e0844c000988a500cf
:10076000050032008b05e8006808e10002003a004d
:100770008904d1000884d300f20f20000258e10060
:1007800005003d00c75ddd00f907b20089807500f6
:1007900008007800000006000bf827008b007800a6
:1007a00000000500c70ade00f107b200f50fb20035
:1007b00008003200e1cf4200020032000170a000c8
:1007c00024000500810f70000100320004080500bc
:1007d00044000500810f700002003a00140005007b
:1007e0008502e9000000400081c04800fcff3b009a
:1007f0000170a000240005000004be00e9ff07000e
:100800000003be000405be000200be00e5ff0700b5
:10081000844f750000000600f0ff2f00f1ff270055
:100820001f023700889fbe008a9fbe008c1f780081
:10083000f1ff07001102330003866c006450e100f1
:10084000240032006420e100270032006150e10002
:10085000220032006120e100210032008b8542003d
:10086000eb07b1000134b800003ab80008044200b8
:1008700089844a00013ab8000030b80088804000fe
:1008800009014a0004003300000040008180480054
:10089000020149008b05e900c909dd0083017000f0
:1008a0000100320013002000c814de004814dd00ef
:1008b0004709de001200b200c808de00088470009c
:1008c00092ff070001f0a1000cf0a70001f0a000ca
:1008d000f30137006120e100cfff32000801be00c4
:1008e0000200be00f7ff37006150e100fcff3a0054
:0408f000c9ff370005
:020000040000fa
:04aff800fff800005e
:020000040000fa
:04affc007f3e000094
:020000040000fa
:1000080090020000900200009002000090020000a0
:100018009002000090020000900200009002000090
:100028009002000090020000900200009002000080
:100038009002000090020000900200009002000070
:100048009002000090020000900200009002000060
:100058009002000090020000900200009002000050
:100068009002000090020000900200009002000040
:100078003607000090020000900200009002000085
:100088009002000090020000900200009002000020
:100098009002000090020000900200009002000010
:1000a8009002000090020000900200009002000000
:1000b80090020000900200009002000090020000f0
:1000c80090020000900200009002000090020000e0
:1000d80090020000900200009002000090020000d0
:1000e80090020000900200009002000090020000c0
:1000f80090020000900200009002000090020000b0
:10010800900200009002000090020000900200009f
:10011800900200009002000090020000900200008f
:10012800900200009002000090020000900200007f
:10013800900200009002000090020000900200006f
:10014800900200009002000090020000900200005f
:10015800900200009002000090020000900200004f
:10016800900200009002000090020000900200003f
:10017800900200009002000090020000900200002f
:10018800900200009002000090020000900200001f
:10019800900200009002000090020000900200000f
:1001a80090020000900200009002000090020000ff
:1001b80090020000900200009002000090020000ef
:1001c80090020000900200009002000090020000df
:1001d80090020000900200009002000090020000cf
:1001e80090020000900200009002000090020000bf
:0801f8009002000090020000db
:020000040000fa
:10020800900200009002000090020000900200009e
:10021800900200009002000090020000900200008e
:10022800900200009002000090020000900200007e
:10023800900200009002000090020000900200006e
:10024800900200009002000090020000900200005e
:10025800900200009002000090020000900200004e
:10026800900200009002000090020000900200003e
:100278003607000090020000900200009002000083
:10028800900200009002000090020000900200001e
:10029800900200009002000090020000900200000e
:1002a80090020000900200009002000090020000fe
:1002b80090020000900200009002000090020000ee
:1002c80090020000900200009002000090020000de
:1002d80090020000900200009002000090020000ce
:1002e80090020000900200009002000090020000be
:1002f80090020000900200009002000090020000ae
:10030800900200009002000090020000900200009d
:10031800900200009002000090020000900200008d
:10032800900200009002000090020000900200007d
:10033800900200009002000090020000900200006d
:10034800900200009002000090020000900200005d
:10035800900200009002000090020000900200004d
:10036800900200009002000090020000900200003d
:10037800900200009002000090020000900200002d
:10038800900200009002000090020000900200001d
:10039800900200009002000090020000900200000d
:1003a80090020000900200009002000090020000fd
:1003b80090020000900200009002000090020000ed
:1003c80090020000900200009002000090020000dd
:1003d80090020000900200009002000090020000cd
:1003e80090020000900200009002000090020000bd
:0803f8009002000090020000d9
:020000040000fa
:1008f4000000fa000e000700040007004e01070084
:1009040034000700b3000700fdff37000000fa00c1
:10091400f07f200060198800000120000016880084
:1009240040022000401688000080fa000000060003
:100934000000fa000000eb00800888000000eb00d3
:10094400900888000000eb00500888000000eb00cd
:10095400300888008500a9001061a80011e1a800f2
:100964000080fa00000006000800fa002007980042
:100974003107980002002000a35724002e009000a5
:10098400be009000a6ff070044ff0700008fbe00d2
:100994000000eb00300888000000eb0050088800dd
:1009a4001e00be004008de00010020007008880020
:1009b4001e0078006008880085c0bf0061406000a8
:1009c4000004e000fcff32008500a9000080fa006a
:1009d400000006000000fa00c2c2bf0070406000c0
:1009e4000004e00015003a00cac2bf000042b20091
:1009f4000004e0001100320000408000e20f5000cb
:100a040026003c00004080000000e8000040880010
:100a140000002000a1472400d3ff070020408000ed
:100a24009b00070000002000813c2400ceff07004b
:100a3400c02b20005201070018003700c2c2bf00bb
:100a4400704060000004e00014003200cac2bf001d
:100a54000042b2000004e00010003a0000408000b0
:100a6400e10f50000d003400004080000000e90058
:100a74000040880000002000a1472400baff0700be
:100a840020408000b700070000002000813c2400c3
:100a9400b5ff0700c02b2000390107000080fa00d1
:100aa400000006000e00fa00000f780011079800fd
:100ab40022079800330798004407980055079800c8
:100ac400660798001e00780061406000c700dd00e2
:100ad400ccc2bf000074a10001407000cce2b7009a
:100ae4001e00900061406000614060004601dd002e
:100af400c12c200091407800f0cbb30000c060000e
:100b040002407000cce2b7002e009000614060000b
:100b1400614060004401dd00c12c20009140780058
:100b2400f0ceb30000c0600002407000cce2b70019
:100b34003e00900061406000614060004301dd00c0
:100b4400c12c20009140780070cfb30000c0600039
:100b540002407000cce2b7004e009000614060009b
:100b6400614060004201dd00412c2000914078008a
:100b7400b0cfb30000c0600002407000c4e2b70010
:100b84005e0090006140600061416000d12c200053
:100b940091407800e0cfb30000c0600002407000d4
:100ba400cde2b7006e0090006140600061406000db
:100bb40000414000d12c200091407800d0cfb300f8
:100bc40000c0600002407000cde2b7000080fa006f
:100bd400000006000000fa0000408000e10f500011
:100be4000c003a00cde2a800cdc2a900cda2a90014
:100bf400160020001500200014002000130020001f
:100c04000001eb008000eb0010002000a5ff0700ae
:100c14001d00370000408000e20f50000c003a0035
:100c2400cde2a900cdc2a800cda2a9000003eb002b
:100c3400150020000002eb008001eb0012002000f0
:100c44008000eb000000eb0096ff07000e00370069
:100c540000408000e30f50000b003a00cde2a900f1
:100c6400cdc2a900cda2a8000003eb00150020000e
:100c7400140020008001eb000001eb008000eb0079
:100c84000000eb0087ff07000080fa000000060068
:100c94000200fa00000f78000000eb0060408800ba
:100ca4002b003700cc22a900c422a900cc02a90041
:100cb400c402a80000002000011f24002aff07002e
:100cc400104080000000e80010408800cc22a900f9
:100cd400c422a900cc02a800c402a900000020007c
:100ce400011f240020ff0700104080000000e800de
:100cf40010408800cc22a900c422a800cc02a9007c
:100d0400c402a90000002000011f240016ff0700f0
:100d1400104080000000e80010408800cc22a800a9
:100d2400c422a900cc02a900c402a900000020002a
:100d3400011f24000cff0700104080000000e800a1
:100d440010408800604080000000e8006040880097
:100d5400604080009e0f5000d2ff35000080fa00f2
:100d6400000006000200fa00000f78000000eb000b
:100d7400604088002b003700cc22a800c422a900c0
:100d8400cc02a900c402a90000002000011f240015
:100d9400f5fe0700104080000000e90010408800c4
:100da400cc22a900c422a800cc02a900c402a90034
:100db40000002000011f2400ebfe0700104080000b
:100dc4000000e90010408800cc22a900c422a90038
:100dd400cc02a800c402a90000002000011f2400c6
:100de400e1fe0700104080000000e9001040880088
:100df400cc22a900c422a900cc02a900c402a800e4
:100e040000002000011f2400d7fe070010408000ce
:100e14000000e90010408800604080000000e80005
:100e240060408800604080009e0f5000d2ff350073
:100e34000080fa00000006000000fa00116820009b
:100e44009140780000ceb30000c060000014a00000
:100e540081e6b7008220a8008680a9009680a800b9
:100e64000080fa00000006003600f800809fbe00f3
:100e7400829fbe00849fbe00869fbe000000fa00d1
:100e84008680a900cde2a900cdc2a900cda2a90007
:100e9400160020001500200014002000130020007c
:100ea400120020001100200010002000fdfe0700a9
:100eb4000000200061392400abfe07000000eb00b5
:100ec400604088001b003700cd82a9001600200076
:100ed4001500200014002000130020001200200040
:100ee4001100200010002000eefe0700000020008a
:100ef400a13f24009cfe0700cd82a8000003eb0064
:100f04008002eb000002eb0013002000120020001e
:100f1400110020000000eb00e2fe070000002000aa
:100f2400a13f240090fe0700604080000000e8001c
:100f34006040880060408000e20f5000e2ff34000f
:100f44002400070010408000420020001100090026
:100f54000200d800204088002040800081ff070064
:100f64000000fe000080fa004f03be004f02be00e6
:100f74004f01be004f00be003600f90000400600dd
:100f84000200fa00000f78000000eb0060408800c7
:100f94000b003700cd42a800a099290091e9230055
:100fa40071fe0700cd42a900a099290091e9230010
:100fb4006dfe0700604080000000e800604088008b
:100fc400604080009e0f5000f2ff35000080fa0060
:100fd400000006000000fa000000eb00504088000a
:100fe40020003700a099290091f1230030408800a7
:100ff400414088000000eb00604088001200370088
:10100400cd42a800304080004140800056fe0700d9
:10101400cd42a900304080004140800052fe0700cc
:101024003040800041408000f226210033a023009c
:101034003cfd07003040880041408800604080004b
:101044000000e8006040880061408000f03120002a
:10105400808f5000eaff3400504080000000e80018
:101064005040880050408000e30f5000ddff340002
:101074000080fa00000006000200be006450e10097
:10108400050036006420e100020036000968a30070
:1010940001003a000800be000160a0004f0678007d
:0c10a4004f05be004f04be000000060017
:020000040000fa
:1010b000000800000c000000020000000100000019
:1010c0000022000000000000000000000c080000ea
:0c10d00002000000000000000000000012
:00000001FF
